S00F000043796265725F332E737265638E
S11300000C9450000C942E040C9458040C94820408
S11300100C946D000C946D000C946D000C946D00A8
S11300200C946D000C946D000C944B050C947205AB
S11300300C946D000C9416060C943D060C94640606
S11300400C946D000C946D000C946D000C946D0078
S11300500C946D0001020B0215021F0229023302E7
S11300603D023D023D023D023D023D023D023D0294
S11300703D023D023D023D023D023D023D023D0284
S11300803D023D023D023D023D023D023D023D0274
S11300903D023D02060210021A0224022E02380218
S11300A011241FBECFE5D8E0DEBFCDBF10E0A0E62F
S11300B0B0E0EAEFF2E102C005900D92A03CB10776
S11300C0D9F721E0A0ECB0E001C01D92A230B20744
S11300D0E1F70E940E030C947B090C940000CF936B
S11300E0C82F60E083E10E94B604C4FB662760F970
S11300F080E20E94B604C5FB662760F981E20E9493
S1130100B604C6FB662760F982E20E94B6046C2F2F
S1130110661F6627661F83E20E94B60461E082E1DF
S11301200E94B60489EF90E00197F1F700C0000047
S113013060E082E10E94B60489EF90E00197F1F754
S113014000C000006C2F617080E20E94B604C1FB05
S1130150662760F981E20E94B604C2FB662760F953
S113016082E20E94B604C3FB662760F983E20E9420
S1130170B60461E082E10E94B60489EF90E0019741
S1130180F1F700C0000060E082E10E94B60489EF4C
S113019090E00197F1F700C00000CF910895CF934C
S11301A0C82F61E083E10E94B604C4FB662760F9AE
S11301B080E20E94B604C5FB662760F981E20E94D2
S11301C0B604C6FB662760F982E20E94B6046C2F6F
S11301D0661F6627661F83E20E94B60461E082E11F
S11301E00E94B60489EF90E00197F1F700C0000087
S11301F060E082E10E94B60489EF90E00197F1F794
S113020000C000006C2F617080E20E94B604C1FB44
S1130210662760F981E20E94B604C2FB662760F992
S113022082E20E94B604C3FB662760F983E20E945F
S1130230B60461E082E10E94B60489EF90E0019780
S1130240F1F700C0000060E082E10E94B60489EF8B
S113025090E00197F1F700C00000CF91089583ED7D
S113026090E30197F1F700C0000082E00E946F0064
S113027088E20E946F008CE00E946F0081E00E947F
S11302806F0089EF90E00197F1F700C0000086E06D
S11302900E946F0083EF91E00197F1F700C0000026
S11302A008950E94CF000895CF93DF93EC018881D5
S11302B0882331F021960E94CF0089918111FBCFD0
S11302C0DF91CF91089589EF90E00197F1F700C095
S11302D0000081E00E946F0083ED90E30197F1F745
S11302E000C000000895813049F028F0823049F0C0
S11302F0833051F00BC090E8960F08C090EC960F35
S113030005C094E9960F02C094ED960F892F0E94C0
S11303106F0008950F931F93CF93811107C080E35B
S113032090E3FB0191838083128232C08B01C82F3A
S1130330803188F01F928F938CE790E09F938F9386
S11303401F936F930E9491060F900F900F900F9040
S11303500F900F901DC01F9280E38F93FB0180814B
S11303601F928F930E9491061F92CF938CE790E087
S11303709F938F93F80181811F928F930E9491061E
S11303808DB79EB70A960FB6F8949EBF0FBE8DBF69
S1130390CF911F910F910895CF92DF92EF92FF9228
S11303A00F931F93CF93DF93EC018B0194E1915052
S11303B0F1F7F80110829881992309F46CC020E0C8
S11303C030E0A0E00F2EFFE0CF2EF02D0F2EFEE048
S11303D0DF2EF02D0F2EFDE0EF2EF02D0F2EFCE082
S11303E0FF2EF02DBBE08AE0492F50E0FA01E154E2
S11303F0F109E632F10508F040C0E65DFF4F0C94C8
S11304008B06F801E20FF31F80833CC0F801E20F72
S1130410F31F808337C0F801E20FF31FB08332C0AB
S1130420F801E20FF31FB0832DC0F801E20FF31FB0
S1130430F08228C0F801E20FF31FF08223C0F80114
S1130440E20FF31FE0821EC0F801E20FF31FE08207
S113045019C0F801E20FF31FD08214C0F801E20FB3
S1130460F31FD0820FC0F801E20FF31FC0820AC04D
S1130470F801E20FF31FC08205C0F801E20FF31F79
S113048090539083AF5F2A2F30E0FE01E20FF31FF9
S113049090819111A9CFDF91CF911F910F91FF907E
S11304A0EF90DF90CF900895FF920F931F93CF9317
S11304B0DF9300D0CDB7DEB700E010E00F2EF5E3F8
S11304C0FF2EF02D0E944905F801EC53FF4F808365
S11304D080818F25F801E054FF4F808388EE93E0FC
S11304E00197F1F70F5F1F4F0430110559F745E0ED
S11304F060E08FE790E00E94B20500E010E0F801B0
S1130500EC53FF4F8081BE016F5F7F4F0E948A01D1
S113051042E060E0CE0101960E94B205CE01019650
S11305200E9454010F5F1F4F0430110541F760E032
S113053081E00E94730100E010E0F801E054FF4FF5
S11305408081BE016F5F7F4F0E948A01CE010196B8
S11305500E9454010F5F1F4F0430110571F70F9073
S11305600F90DF91CF911F910F91FF900895EF921B
S1130570FF920F931F93CF93DF9300D01F92CDB7B9
S1130580DEB72FEF80E792E0215080409040E1F702
S113059000C0000060E083E00E94730104E010E00A
S11305A0E12CF12CF701E054FF4F8081BE016F5F15
S11305B07F4F0E948A01F801E252FF4F80819981A6
S11305C09817B1F00FC061E086E10E94B6042FEFE6
S11305D0E21AF20A0E5F1F4F84E0E816F10411F7E5
S11305E081E012C060E086E10E94B60480E00CC0A5
S11305F061E086E10E94B604F801E152FF4F808178
S11306009A81981701F3EECF0F900F900F90DF911E
S1130610CF911F910F91FF90EF9008950E94AC0429
S11306200E942F010E9499050E943B052FEF89E645
S113063098E1215080409040E1F700C0000084E838
S113064090E00E94540144E160E082EB90E00E945B
S1130650B2052FEF89E698E1215080409040E1F700
S113066000C000000E9463010E9445052FEF80E74F
S113067092E0215080409040E1F700C0000060E02B
S113068080E00E94730164E170E08EED90E00E94CE
S1130690E9052FEF84E39CE0215080409040E1F78E
S11306A000C000008091DE008093C9008091C900E1
S11306B0803309F4D0C08EED90E00E9454012FEFF6
S11306C084E39CE0215080409040E1F700C00000AA
S11306D06AEC70E08EED90E00E94CC018091C9003C
S11306E0823321F0833309F47AC0A9C08091DF00FA
S11306F0873309F06DC08091E100813319F08233B2
S113070099F09DC00E9463012FEF84E39CE0215087
S113071080409040E1F700C000008FE790E00E9425
S113072054010E9454028BC00E94B7028093C800F7
S113073045E060E084E990E00E94B205C4E0D0E0C6
S1130740FE01E252FF4F80810E94AD052196CC301C
S1130750D105B1F78091C800882311F10E9463018B
S11307602FEF84E39CE0215080409040E1F700C0EB
S1130770000084E990E00E94540145E060E084E9CF
S113078090E00E94B205C4E0D0E0FE01E252FF4FC7
S113079080810E9451012196CC30D105B1F74FC020
S11307A00E9463012FEF84E39CE02150804090403D
S11307B0E1F700C0000060E080E00E94730189E975
S11307C090E00E94540161E085E10E94B60437C0C4
S11307D044E160E080E690E00E94B20530C0809180
S11307E0DF00813331F58091C8008823D9F08091EE
S11307F0CE008A3021F58091CF008A3001F58091B6
S1130800D00081111CC08091D100811118C044E135
S113081060E087E690E00E94B20561E087E10E9413
S1130820B6040DC044E160E081E790E00E94B205A7
S113083006C044E160E080E690E00E94B20543E037
S113084060E08DEA90E00E94B20544E160E080EB54
S113085090E00E94B2051092C90008CF1F920F9237
S11308600FB60F9211242F933F934F935F936F937F
S11308707F938F939F93AF93BF93EF93FF93E091F5
S1130880F600F091F70009958AB780648ABFFF915A
S1130890EF91BF91AF919F918F917F916F915F91F4
S11308A04F913F912F910F900FBE0F901F9018956D
S11308B01F920F920FB60F9211242F933F934F93D1
S11308C05F936F937F938F939F93AF93BF93EF93B4
S11308D0FF93E091F400F091F50009958AB78068E0
S11308E08ABFFF91EF91BF91AF919F918F917F91BB
S11308F06F915F914F913F912F910F900FBE0F9089
S11309001F9018951F920F920FB60F9211242F93D8
S11309103F934F935F936F937F938F939F93AF9383
S1130920BF93EF93FF93E091F200F091F3000995E8
S11309308AB780628ABFFF91EF91BF91AF919F9177
S11309408F917F916F915F914F913F912F910F9074
S11309500FBE0F901F9018958FEF8ABB8FEB87BB4C
S11309608CE384BB82E081BB80E00895282F2F7044
S113097082958F70823039F118F4813039F079C062
S11309808330F1F1843009F458C073C03BB381E083
S113099090E0022E02C0880F991F0A94E2F7482FB4
S11309A0409534233BBB623021F49BB389278BBB36
S11309B060C08BB370E002C0660F771F2A95E2F720
S11309C0682B6BBB56C038B381E090E0022E02C0A6
S11309D0880F991F0A94E2F7482F4095342338BBB7
S11309E0623021F498B3892788BB43C088B370E090
S11309F002C0660F771F2A95E2F7682B68BB39C0DF
S1130A0035B381E090E0022E02C0880F991F0A944A
S1130A10E2F7482F4095342335BB623021F495B377
S1130A20892785BB26C085B370E002C0660F771F97
S1130A302A95E2F7682B65BB1CC032B381E090E0D5
S1130A40022E02C0880F991F0A94E2F7482F40959E
S1130A50342332BB623021F492B3892782BB09C0AC
S1130A6082B370E002C0660F771F2A95E2F7682B05
S1130A7062BB80E0089513BE12BE1CBE83B783BF61
S1130A8083B783BF83B783BF089583B7836083BF6E
S1130A90089582B708951F920F920FB60F921124F2
S1130AA02F933F934F935F936F937F938F939F9372
S1130AB0AF93BF93EF93FF93E091FA00F091FB00A3
S1130AC00995FF91EF91BF91AF919F918F917F9184
S1130AD06F915F914F913F912F910F900FBE0F90A7
S1130AE01F9018951F920F920FB60F9211242F93F7
S1130AF03F934F935F936F937F938F939F93AF93A2
S1130B00BF93EF93FF93E091F800F091F9000995FA
S1130B10FF91EF91BF91AF919F918F917F916F91D1
S1130B205F914F913F912F910F900FBE0F901F90A7
S1130B3018951BB88BB18BB980E880BD80B580BD9A
S1130B4080B580BD80B580BD80B5866080BD1AB893
S1130B50539A549A83E389B908955D9BFECF9CB15F
S1130B608CB90895EF92FF920F931F93CF93DF9365
S1130B701F92CDB7DEB719822981FC01E20FF11D66
S1130B8020816217D1F0E42EF62E8C01898184171E
S1130B90A0F48981F801E80FF11D80810E94AD0560
S1130BA099819F5F99838981F801E80FF11D808104
S1130BB08F1519F089818E1560F30F90DF91CF9115
S1130BC01F910F91FF90EF9008955F9BFECF8CB122
S1130BD00895CF92DF92EF92FF920F931F93CF93DA
S1130BE0DF936C017B0181E0E81AF10889F086014A
S1130BF0C0E0D0E00E94E5058D3061F08A3051F00C
S1130C00F80181938F012196CE15DF0598F302C078
S1130C10C0E0D0E0CC0DDD1D1882DF91CF911F9193
S1130C200F91FF90EF90DF90CF9008951F920F9255
S1130C300FB60F9211242F933F934F935F936F93AB
S1130C407F938F939F93AF93BF93EF93FF93E09121
S1130C500001F09101010995FF91EF91BF91AF91CE
S1130C609F918F917F916F915F914F913F912F91C0
S1130C700F900FBE0F901F9018951F920F920FB6F2
S1130C800F9211242F933F934F935F936F937F930E
S1130C908F939F93AF93BF93EF93FF93E091FE00E5
S1130CA0F091FF000995FF91EF91BF91AF919F9152
S1130CB08F917F916F915F914F913F912F910F9001
S1130CC00FBE0F901F9018951F920F920FB60F92A0
S1130CD011242F933F934F935F936F937F938F933D
S1130CE09F93AF93BF93EF93FF93E091FC00F09138
S1130CF0FD000995FF91EF91BF91AF919F918F9165
S1130D007F916F915F914F913F912F910F900FBE03
S1130D100F901F901895EE0FFF1F0590F491E02D92
S1130D200994AEE0B0E0E7E9F6E00C9452090D89CD
S1130D301E8986E08C831A8309838FEF9FE79E8345
S1130D408D83AE01475E5F4F6F89788DCE0101962A
S1130D500E94B306EF81F885E00FF11F10822E96F2
S1130D60E4E00C946E09ABE0B0E0E9EBF6E00C943F
S1130D7044096C017B018A01FC011782168283817C
S1130D8081FFCCC1CE0101963C01F6019381F701AC
S1130D9093FD859193FF81917F01882309F4BAC162
S1130DA0853239F493FD859193FF81917F018532DA
S1130DB029F4B60190E00E94AA08E7CF912C212CD7
S1130DC0312CFFE1F315D8F08B3279F038F480320E
S1130DD079F08332A1F4232D20611DC08D3261F09E
S1130DE0803369F4232D216016C0832D8260382E50
S1130DF0E32DE4603E2E2AC0F32DF8601DC037FCBD
S1130E002DC020ED280F2A3040F08E32B9F436FC84
S1130E1081C1232D2064322E19C036FE06C08AE01B
S1130E20989E200D1124922E11C0EAE02E9E200DD2
S1130E301124222EF32DF0623F2E08C08C3621F4AB
S1130E40832D8068382E02C0883641F4F70193FD63
S1130E50859193FF81917F018111B3CF982F9F7D5D
S1130E609554933028F40C5F1F4F9FE399830DC072
S1130E70833631F0833771F0833509F059C021C0CE
S1130E80F801808189830E5F1F4F88248394912CFD
S1130E90530113C02801F2E04F0E511CF801A08049
S1130EA0B18036FE03C0692D70E002C06FEF7FEFA2
S1130EB0C5010E949F084C018201F32DFF773F2E4C
S1130EC016C0280122E0420E511CF801A080B18016
S1130ED036FE03C0692D70E002C06FEF7FEFC501DD
S1130EE00E9494084C01F32DF0683F2E820133FCDC
S1130EF01BC0822D90E088169906B0F4B60180E2FA
S1130F0090E00E94AA082A94F4CFF50137FC859159
S1130F1037FE81915F01B60190E00E94AA0821107A
S1130F202A9421E0821A91088114910471F7E8C08F
S1130F30843611F0893641F5F80137FE07C0608127
S1130F407181828193810C5F1F4F08C06081718120
S1130F50072E000C880B990B0E5F1F4FF32DFF76A5
S1130F603F2E97FF09C090958095709561957F4FAE
S1130F708F4F9F4FF0683F2E2AE030E0A3010E947C
S1130F80E608882E861845C0853731F4232D2F7E38
S1130F90B22E2AE030E025C0932D997FB92E8F36EA
S1130FA0C1F018F4883579F0B5C0803719F0883766
S1130FB021F0B0C0E92FE061BE2EB4FE0DC0FB2DC0
S1130FC0F460BF2E09C034FE0AC0292F2660B22E59
S1130FD006C028E030E005C020E130E002C020E196
S1130FE032E0F801B7FE07C060817181828193818C
S1130FF00C5F1F4F06C06081718180E090E00E5F3E
S11310001F4FA3010E94E608882E8618FB2DFF7748
S11310103F2E36FE0DC0232D2E7FA22E891458F4A8
S113102034FE0BC032FC09C0832D8E7EA82E05C071
S1131030B82CA32C03C0B82C01C0B92CA4FE0FC03B
S1131040FE01E80DF11D8081803321F49A2D997EF3
S1131050A92E09C0A2FE06C0B394B39404C08A2D7D
S1131060867809F0B394A3FC11C0A0FE06C0B214A4
S113107088F4280C922C9B180EC0B21460F4B601AC
S113108080E290E00E94AA08B394F7CFB21418F457
S11310902B1802C0982C212CA4FE10C0B60180E3AA
S11310A090E00E94AA08A2FE17C0A1FC03C088E732
S11310B090E002C088E590E0B6010CC08A2D8678E5
S11310C059F0A1FE02C08BE201C080E2A7FC8DE2D0
S11310D0B60190E00E94AA08891438F4B60180E3AE
S11310E090E00E94AA089A94F7CF8A94F301E80D3D
S11310F0F11D8081B60190E00E94AA088110F5CF0D
S1131100222009F442CEB60180E290E00E94AA08AF
S11311102A94F6CFF6018681978102C08FEF9FEF64
S11311202B96E2E10C946009FC010590615070403B
S11311300110D8F7809590958E0F9F1F0895FC019C
S11311406150704001900110D8F7809590958E0FF2
S11311509F1F08950F931F93CF93DF93FB01238168
S113116021FD03C08FEF9FEF2CC022FF16C04681E4
S11311705781248135814217530744F4A081B181FA
S11311809D012F5F3F4F318320838C9326813781CC
S11311902F5F3F4F3783268314C08B01EC01FB0183
S11311A00084F185E02D0995892BE1F6D801169686
S11311B08D919C911797019617969C938E931697F1
S11311C0CE01DF91CF911F910F910895FA01AA27C3
S11311D0283051F1203181F1E8946F936E7F6E5F76
S11311E07F4F8F4F9F4FAF4FB1E03ED0B4E03CD024
S11311F0670F781F891F9A1FA11D680F791F8A1F07
S1131200911DA11D6A0F711D811D911DA11D20D06D
S113121009F468943F912AE0269F11243019305D27
S11312203193DEF6CF010895462F4770405D419318
S1131230B3E00FD0C9F7F6CF462F4F70405D4A3365
S113124018F0495D31FD4052419302D0A9F7EACF2D
S1131250B4E0A6959795879577956795BA95C9F75C
S113126000976105710508959B01AC010A2E06944F
S11312705795479537952795BA95C9F7620F731F08
S1131280841F951FA01D08952F923F924F925F9245
S11312906F927F928F929F92AF92BF92CF92DF9282
S11312A0EF92FF920F931F93CF93DF93CDB7DEB7E7
S11312B0CA1BDB0B0FB6F894DEBF0FBECDBF09947B
S11312C02A88398848885F846E847D848C849B84D2
S11312D0AA84B984C884DF80EE80FD800C811B81E0
S11312E0AA81B981CE0FD11D0FB6F894DEBF0FBE0F
S10D12F0CDBFED010895F894FFCF7F
S11312FA4572726F7200003731303141413030002B
S113130A004E5243374633313335000025580036F0
S113131A3730310020202020535441525420415068
S113132A5020200036373032005365637572697471
S113133A79204B6579204572726F7221000D0A007B
S113134A0D0A53656E6420526571756573740000E5
S9030000FC
